S02100006D796F2D636F72652D6170706C69636174696F6E2D5245565F442E686578C2
S214010000000001206D220100E1300200F9300200FB
S214010010F9300200F9300200F9300200F93002002E
S214010020F9300200F9300200F9300200F93002001E
S214010030F9300200F9300200F9300200F93002000E
S214010040613A0200953A0200C93A0200FD3A0200FE
S214010050F9300200F9300200F9300200F9300200EE
S214010060F9300200F9300200F9300200F9300200DE
S214010070F9300200F9300200F9300200F9300200CE
S214010080F1390200F9300200F9300200F9300200BD
S214010090F9300200F9300200F9300200F9300200AE
S2140100A0D93E0200F9300200F9300200F9300200B0
S2140100B0F9300200F9300200F9300200492F02003F
S2140100C0492F0200F9300200F9300200F93002002F
S2140100D0F9300200F9300200F9300200B53B0100A8
S2140100E0F9300200052B0200F9300200F930020057
S2140100F0F9300200F9300200F9300200F93002004E
S214010100F9300200F9300200F9300200F93002003D
S214010110F9300200F9300200F9300200F93002002D
S214010120F9300200F93002004D5A010065AB0100BA
S21401013085AB0100A5AB0100D9AB01000DAC0100F8
S214010140F9300200F9300200F9300200F9300200FD
S214010150F9300200F9300200F9300200F9300200ED
S214010160F930020041590100F9300200F93002006D
S214010170F9300200F9300200F9300200F9300200CD
S20C010180F9300200F93002001B
S20C01018800000800120002004D
S2140102006C0000007B0D0A20202276657273696FF0
S2140102106E223A207B0D0A20202020226D616A6F13
S21401022072223A20302C0D0A20202020226D696E81
S2140102306F72223A20382C0D0A202020202270616D
S214010240746368223A2031382C0D0A20202020229F
S21401025068617264776172655F7265766973696FEA
S2140102606E223A20320D0A20207D0D0A7D0D0A00ED
S21401041000000000000000000000000000000000D6
S21401042000000000000000000000000000000000C6
S21401043000000000000000000000000000000000B6
S21401044000000000000000000000000000000000A6
S21401100081F0004102E000BF83F0004330B54FEAB3
S21401101041044FEA430594EA050F08BF90EA020F20
S2140110201FBF54EA000C55EA020C7FEA645C7FEAB3
S214011030655C00F0E2804FEA5454D4EB5555B8BFD6
S2140110406D420CDD2C4480EA020281EA030382EA47
S214011050000083EA010180EA020281EA0303362DD9
S21401106088BF30BD11F0004F4FEA01314FF4801CAC
S2140110704CEA113102D0404261EB410113F0004FBE
S2140110804FEA03334CEA133302D0524263EB430375
S21401109094EA050F00F0A780A4F10104D5F1200E13
S2140110A00DDB02FA0EFC22FA05F2801841F100016E
S2140110B003FA0EF2801843FA05F359410EE0A5F142
S2140110C020050EF1200E012A03FA0EFC28BF4CF073
S2140110D0020C43FA05F3C01851EBE37101F0004529
S2140110E007D54FF0000EDCF1000C7EEB00006EEB36
S2140110F00101B1F5801F1BD3B1F5001F0CD34908C0
S2140111005FEA30004FEA3C0C04F101044FEA445216
S21401111012F5800F80F09A80BCF1004F08BF5FEA9D
S214011120500C50F1000041EB045141EA050130BD7D
S2140111305FEA4C0C404141EB010111F4801FA4F120
S2140111400104E9D191F0000F04BF01460020B1FA75
S21401115081F308BF2033A3F10B03B3F120020CDAAD
S2140111600C3208DD02F1140CC2F10C0201FA0CF08B
S21401117021FA02F10CE002F11402D8BFC2F1200CF0
S21401118001FA02F120FA0CFCDCBF41EA0C019040A6
S214011190E41AA2BF01EB0451294330BD6FEA0404EF
S2140111A01F3C1CDA0C340EDC04F11404C4F12002DA
S2140111B020FA04F001FA02F340EA030021FA04F3EC
S2140111C045EA030130BDC4F10C04C4F1200220FA43
S2140111D002F001FA04F340EA0300294630BD21FA81
S2140111E004F0294630BD94F0000F83F4801306BF47
S2140111F081F480110134013D4EE77FEA645C18BF3B
S2140112007FEA655C29D094EA050F08BF90EA020FD1
S21401121005D054EA000C04BF1946104630BD91EAC9
S214011220030F1EBF0021002030BD5FEA545C05D1CC
S2140112304000494128BF41F0004130BD14F580040B
S2140112403CBF01F5801130BD01F0004545F0FE417F
S21401125041F470014FF0000030BD7FEA645C1ABFB4
S214011260194610467FEA655C1CBF0B46024650EAEB
S214011270013406BF52EA033591EA030F41F4002117
S21401128030BD00BF90F0000F04BF0021704730B59D
S2140112904FF4806404F132044FF000054FF0000172
S2140112A050E700BF90F0000F04BF0021704730B533
S2140112B04FF4806404F1320410F0004548BF404208
S2140112C04FF000013EE700BF42004FEAE2014FEA5D
S2140112D031014FEA02701FBF12F07F4393F07F4F38
S2140112E081F06051704792F0000F14BF93F07F4F6A
S2140112F0704730B54FF4607401F0004521F00041AD
S21401130020E700BF50EA010208BF704730B54FF032
S21401131000050AE050EA010208BF704730B511F037
S214011320004502D5404261EB41014FF4806404F16F
S21401133032045FEA915C3FF4DCAE4FF003025FEAF1
S214011340DC0C18BF03325FEADC0C18BF033202EB79
S214011350DC02C2F1200300FA03FC20FA02F001FAD3
S21401136003FE40EA0E0021FA02F11444C1E600BF72
S21401137070B54FF0FF0C4CF4E06C1CEA11541DBF25
S2140113801CEA135594EA0C0F95EA0C0F00F0DEF8F0
S2140113902C4481EA030621EA4C5123EA4C5350EAD5
S2140113A0013518BF52EA033541F4801143F4801326
S2140113B038D0A0FB02CE4FF00005E1FB02E506F0B7
S2140113C00042E0FB03E54FF00006E1FB03569CF00C
S2140113D0000F18BF4EF0010EA4F1FF04B6F5007F12
S2140113E064F5407404D25FEA4E0E6D4146EB060684
S2140113F042EAC62141EA55514FEAC52040EA5E500D
S2140114004FEACE2EB4F1FD0C88BFBCF5E06F1ED8B6
S214011410BEF1004F08BF5FEA500E50F1000041EBED
S214011420045170BD06F0004646EA010140EA02009A
S21401143081EA0301B4EB5C04C2BFD4EB0C0541EABC
S214011440045170BD41F480114FF0000E013C00F3D1
S214011450AB8014F1360FDEBF002001F0004170BDF5
S214011460C4F10004203C35DA0C341BDC04F114040E
S214011470C4F1200500FA05F320FA04F001FA05F29A
S21401148040EA020001F0004221F0004110EBD37067
S21401149021FA04F642EB06015EEA430E08BF20EA93
S2140114A0D37070BDC4F10C04C4F1200500FA04F336
S2140114B020FA05F001FA04F240EA020001F00041C8
S2140114C010EBD37041F100015EEA430E08BF20EA3B
S2140114D0D37070BDC4F1200500FA05F24EEA020E83
S2140114E020FA04F301FA05F243EA020321FA04F0B2
S2140114F001F0004121FA04F220EA020000EBD37069
S2140115005EEA430E08BF20EAD37070BD94F0000F68
S2140115100FD101F00046400041EB010111F4801F9C
S21401152008BF013CF7D041EA060195F0000F18BF4D
S214011530704703F00046520043EB030313F4801F89
S21401154008BF013DF7D043EA0603704794EA0C0F43
S2140115500CEA135518BF95EA0C0F0CD050EA410659
S21401156018BF52EA4306D1D181EA030101F00041D6
S2140115704FF0000070BD50EA410606BF10461946FE
S21401158052EA430619D094EA0C0F02D150EA01360A
S21401159013D195EA0C0F05D152EA03361CBF10464B
S2140115A019460AD181EA030101F0004141F0FE41EA
S2140115B041F470014FF0000070BD41F0FE4141F46E
S2140115C0780170BD70B54FF0FF0C4CF4E06C1CEA6E
S2140115D011541DBF1CEA135594EA0C0F95EA0C0F23
S2140115E000F0A7F8A4EB050481EA030E52EA0335DE
S2140115F04FEA013100F088804FEA03334FF08055FF
S21401160045EA131343EA12634FEA022245EA11152B
S21401161045EA10654FEA00260EF000419D4208BFDC
S214011620964244F1FD0404F5407402D25B084FEA89
S2140116303202B61A65EB03055B084FEA32024FF435
S21401164080104FF4002CB6EB020E75EB030E22BF92
S214011650B61A754640EA0C005B084FEA3202B6EB52
S214011660020E75EB030E22BFB61A754640EA5C0001
S2140116705B084FEA3202B6EB020E75EB030E22BF91
S214011680B61A754640EA9C005B084FEA3202B6EB92
S214011690020E75EB030E22BFB61A754640EADC0051
S2140116A055EA060E18D04FEA051545EA16754FEAB3
S2140116B006164FEAC30343EA52734FEAC2025FEAD1
S2140116C01C1CC0D111F4801F0BD141EA00014FF060
S2140116D000004FF0004CB6E711F4801F04BF014331
S2140116E00020B4F1FD0C88BFBCF5E06F3FF6AFAE4D
S2140116F0B5EB030C04BFB6EB020C5FEA500C50F1DD
S214011700000041EB045170BD0EF0004E4EEA11315F
S21401171014EB5C04C2BFD4EB0C0541EA045170BD66
S21401172041F480114FF0000E013C90E645EA060EAA
S2140117308DE60CEA135594EA0C0F08BF95EA0C0FD8
S2140117403FF43BAF94EA0C0F0AD150EA01347FF420
S21401175034AF95EA0C0F7FF425AF104619462CE7F7
S21401176095EA0C0F06D152EA03353FF4FDAE10465A
S214011770194622E750EA410618BF52EA43067FF4AB
S214011780C5AE50EA41047FF40DAF52EA43057FF43B
S214011790EBAE12E74FF0FF3C06E000BF4FF0010C46
S2140117A002E000BF4FF0010C4DF804CD4FEA410CAA
S2140117B07FEA6C5C4FEA430C18BF7FEA6C5C1BD077
S2140117C001B050EA410C0CBF52EA430C91EA030FF8
S2140117D002BF90EA020F0020704710F1000F91EA55
S2140117E0030F58BF994208BF90422CBFD8176FEA23
S2140117F0E37040F0010070474FEA410C7FEA6C5CF1
S21401180002D150EA013C07D14FEA430C7FEA6C5CF7
S214011810D6D152EA033CD3D05DF8040B704700BF23
S2140118208446104662468C461946634600E000BF71
S21401183001B5FFF7B7FF002848BF10F1000F01BD43
S2140118404DF808EDFFF7F4FF0CBF012000205DF80E
S21401185008FB00BF4DF808EDFFF7EAFF34BF012093
S21401186000205DF808FB00BF4DF808EDFFF7E0FF2C
S21401187094BF012000205DF808FB00BF4DF808ED7D
S214011880FFF7CEFF94BF012000205DF808FB00BFE4
S2140118904DF808EDFFF7C4FF34BF012000205DF8C6
S2140118A008FB00BF4FEA410212F5001215D211D50E
S2140118B06FF47873B3EB625212D94FEAC12343F047
S2140118C0004343EA505311F0004F23FA02F018BFC9
S2140118D0404270474FF00000704750EA013005D192
S2140118E011F0004008BF6FF0004070474FF0000055
S2140118F0704700BF4FEA4102B2F1E04324BFB3F59F
S214011900001CDCF1FE5C0DD901F0004C4FEAC00270
S2140119104CEA5070B2F1004F40EB830008BF20F054
S2140119200100704711F0804F21D113F13872BCBF0E
S21401193001F00040704741F480114FEA5252C2F163
S2140119401802C2F1200C10FA0CF320FA02F018BFAC
S21401195040F001004FEAC1234FEAD32303FA0CFCFF
S21401196040EA0C0023FA02F34FEA4303CCE77FEA8E
S214011970625307D150EA01331EBF4FF0FE4040F4D8
S2140119804000704701F0004040F0FE4040F4000087
S214011990704700BF80F0004002E000BF81F00041C8
S2140119A042001FBF5FEA410392EA030F7FEA226CFF
S2140119B07FEA236C6AD04FEA1262D2EB1363C1BF8F
S2140119C0D218414048404140B8BF5B42192B88BFFE
S2140119D0704710F0004F40F4000020F07F4018BF21
S2140119E0404211F0004F41F4000121F07F4118BF41
S2140119F0494292EA030F3FD0A2F1010241FA03FCE9
S214011A0010EB0C00C3F1200301FA03F100F00043D0
S214011A1002D5494260EB4000B0F5000F13D3B0F198
S214011A20807F06D340084FEA310102F10102FE2A07
S214011A3051D2B1F1004F40EBC25008BF20F0010077
S214011A4040EA03007047490040EB000010F4000F25
S214011A50A2F10102EDD1B0FA80FCACF1080CB2EBB8
S214011A600C0200FA0CF0AABF00EBC2505242184317
S214011A70BCBFD0401843704792F0000F81F40001BC
S214011A8006BF80F400000132013BB5E74FEA41038F
S214011A907FEA226C18BF7FEA236C21D092EA030FFB
S214011AA004D092F0000F08BF0846704790EA010F75
S214011AB01CBF0020704712F07F4F04D1400028BFA2
S214011AC040F00040704712F100723CBF00F5000084
S214011AD0704700F0004343F0FE4040F400007047BA
S214011AE07FEA226216BF08467FEA23630146420266
S214011AF006BF5FEA412390EA010F40F48000704779
S214011B004FF0000304E000BF10F0004348BF40421E
S214011B105FEA000C08BF704743F0964301464FF05A
S214011B2000001CE050EA010208BF70474FF00003B6
S214011B300AE000BF50EA010208BF704711F00043F7
S214011B4002D5404261EB41015FEA010C02BF8446C7
S214011B500146002043F0B64308BFA3F18053A3F526
S214011B600003BCFA8CF2083AA3EBC25310DB01FA6D
S214011B7002FC634400FA02FCC2F12002BCF1004FF1
S214011B8020FA02F243EB020008BF20F00100704782
S214011B9002F1200201FA02FCC2F1200250EA4C00D6
S214011BA021FA02F243EB020008BF20EADC7070471C
S214011BB073B96AB9002908BF0028BCBF00204FF0DE
S214011BC00041C4BF6FF000414FF0FF3000F08AB80B
S214011BD082B0EC462DE9005000F058F8DDF804E03C
S214011BE002B00CBC704700BF4BB942B9002908BF10
S214011BF0002802D04FF0FF31084600F073B882B0DB
S214011C00EC462DE9005000F057F8DDF804E002B08C
S214011C100CBC704707EE900AF5EEC07AF1EE10FAAA
S214011C2008B503D4BDE8084000F00CB8B1EE670A69
S214011C3010EE100A00F006F8424261EB410310462E
S214011C40194608BD70B5FFF73FFB00230022C3F617
S214011C50F05304460D46FFF78BFB00F045F80646A9
S214011C60FFF710FB00230022C4F2F013FFF780FBFE
S214011C7002460B4620462946FFF7C6F900F034F81F
S214011C80002202431046314670BD00BFF8B5164625
S214011C9004460D461F4600F047F806FB01F300FB1D
S214011CA00737A6FB0023FB18A21A65EB0303069C65
S214011CB0C4E90023F8BD00BFF8B5164604460D4634
S214011CC01F4600F08FF900FB07F7A0FB062306FB73
S214011CD00177FB18A21A65EB0303069CC4E90023EF
S214011CE0F8BD00BF704700BF4A0011D212F50012BE
S214011CF011D20DD56FF47873B3EB62520ED44FEA5E
S214011D00C12343F0004343EA505323FA02F07047DD
S214011D104FF00000704750EA013002D14FF0FF301B
S214011D2070474FF00000704700292DE9F00F1D465F
S214011D30C0F29D800024002DC0F2948080460F469C
S214011D4094461E46E3BB8A4255D9B2FA82F747B19A
S214011D50C7F1200520FA05F601FA07F1BA4031432A
S214011D60B840170CB1FBF7F6030C1FFA82FC07FB11
S214011D7016110CFB06F543EA01439D4208D9711E74
S214011D809B1880F013819D4240F21081023E9B1801
S214011D90591BB1FBF7F507FB151380B20CFB05FCCD
S214011DA040EA03418C4507D96B1E8A1880F00081F2
S214011DB0944540F2FD80023D45EA0641002503E0D8
S214011DC08B420CD9002529460A462B4614B15242AD
S214011DD063EB430310461946BDE8F00F7047B3FAAC
S214011DE083F5002D40F087808B4201D38242EAD8EA
S214011DF000250121E8E712B90126B6FBF2F2B2FA94
S214011E0082F6002E39D18E1A130C1FFA82FC012598
S214011E10B6FBF3F703FB17614FEA10490CFB07F813
S214011E2049EA0146B04506D9791EB61802D2B04530
S214011E3000F2D3800F46C8EB0606B6FBF3F103FBB0
S214011E40116380B20CFB01FC40EA03439C4506D9B2
S214011E504E1E9A1802D2944500F2C280314641EADB
S214011E600741B1E7E443524263EB430366E740426E
S214011E7061EB41014FF0FF345DE7B240C6F1200946
S214011E8021FA09F720FA09F5130C01FA06F1B7FB56
S214011E90F3F845EA01091FFA82FC03FB18774FEABB
S214011EA019410CFB08F541EA0747B040BD420AD983
S214011EB0BF1808F1FF3680F08E80BD4240F28B805D
S214011EC0A8F10208BF18791BB1FBF3F503FB151740
S214011ED01FFA89F90CFB05F649EA07418E4206D935
S214011EE06F1E891871D28E426FD9023D89188E1BDA
S214011EF045EA08458CE7C5F1200122FA01F306FA06
S214011F0005F61E4327FA01F24FEA164907FA05F7C6
S214011F1020FA01F1B2FBF9F80F433B0C1FFA86FADF
S214011F2009FB18220AFB08FB43EA024293450CFA16
S214011F3005FC08D9921908F1FF314AD2934548D9D0
S214011F40A8F102089219CBEB0203B3FBF9F109FBE6
S214011F501132BFB20AFB01FA47EA02439A4506D993
S214011F604A1E9B1933D29A4531D902399B1941EA47
S214011F7008410F0C1FFA8CF808FB07F68AB24FEAE5
S214011F801C4C08FB02F80CFB026202EB18420CFB2D
S214011F9007FC964288BF0CF5803CCAEB03030CEBAA
S214011FA0124C63450ED305D000250DE70E46EFE62D
S214011FB01D4601E71FFA88F800FA05F008EB02450E
S214011FC0A842F1D201390025FEE63D468FE71146CB
S214011FD0CDE78846B7E7B04675E7023FB6182AE769
S214011FE002393CE72DE9F007144605460E46002B5C
S214011FF03DD18A4249D9B2FA82F747B1C7F12001E9
S21401200020FA01F206FA07F6BC401643BD40220C40
S214012010B6FBF2F02F0CA1B202FB106601FB00F337
S21401202047EA0646B34208D9471E361980F0F880BB
S214012030B34240F2F58002383619F61AB6FBF2F3CF
S21401204002FB1362ADB201FB03F145EA0242914283
S21401205007D95E1E121980F0E580914240F2E280B7
S214012060023B43EA00400021BDE8F00770478B427F
S21401207043D8B3FA83F4002C42D18B4202D3824276
S21401208000F2DF8000210120EEE712B90127B7FB3D
S214012090F2F4B4FA84F2002A40F088800A1B230C7A
S2140120A0A7B20121B2FBF3F603FB16224FEA154C49
S2140120B007FB06F04CEA0242904207D9121906F1D4
S2140120C0FF3C02D2904200F2CE806646121AB2FB64
S2140120D0F3F003FB1023ADB207FB00F745EA034319
S2140120E09F4207D9421E1B1980F09E809F4240F2F4
S2140120F09B80023840EA0640B6E700210846B3E76F
S214012100C4F1200622FA06F503FA04F32B434FEA3C
S214012110134C21FA06F501FA04F120FA06F6B5FB8E
S214012120FCF746EA010A1FFA83F80CFB17554FEA3B
S2140121301A4108FB07F941EA0545A94502FA04F2E6
S21401214003D97E1EED187FD33746C9EB0501B1FBD7
S214012150FCF60CFB16151FFA8AFA08FB06F84AEA83
S2140121600541884503D9751EC91873D32E4646EA1C
S2140121700746370C1FFA82FC0CFB07F5120CB3B2AC
S2140121800CFB03FC02FB035303EB1C4302FB07F2AD
S2140121909D4288BF02F58032C8EB010102EB134273
S2140121A091424BD342D0304600215DE79440C2F1C4
S2140121B0200521FA05F6230C20FA05F701FA02F1AB
S2140121C0B6FBF3FC39430D0CA7B203FB1C6645EACC
S2140121D0064607FB0CF8B04500FA02F508D9361991
S2140121E00CF1FF303DD2B0453BD9ACF1020C3619AB
S2140121F0C8EB0602B2FBF3F003FB10268AB242EAF2
S214012200064207FB00F1914206D9461E121926D254
S214012210914224D902381219521A40EA0C4141E778
S21401222038460AE733461CE7104663E71FFA8CFC7C
S21401223000FA04F00CEB03439842B4D2701E00215E
S21401224012E7214620460FE7A9457FF67DAF023FFC
S214012250ED187AE7884589D9023EC91887E73046DE
S214012260DAE78446C4E7023E12192FE71CF0BEFAED
S21401227010F0C4FF40F2902049F69C42C1F6FF7070
S214012280C1F6FF720021121A17F0F4FB1CF08AFA4D
S2140122901CF0BEFA1CF024FA1CF0C8FA40F2902199
S2140122A0C1F6FF71002012F069F917F085FB00BF37
S2140122B0FEE700BF1D4B1A78012A0DD002D3022A71
S2140122C012D070471A4A117802291FD0194B1849A3
S2140122D05868012210F044BD15490878032818D023
S2140122E0144B586810F03CBD13480268511C102965
S2140122F0016017D001680F48406801EB4102C1EB4D
S214012300C2030E491722C91810F02ABD0120187001
S214012310DCE70849084A486802211970002313605F
S2140123201168EAE700230360E4E700BF8C04FF1F9F
S2140123308D04FF1FCC8CFF1FC004FF1FEC02FF1F84
S214012340F8B53F4C3F4F60683F4D10F077FD606831
S21401235010F0AAFD002664203E6003F0FFFB314624
S2140123603A4808F0D9FA4FF4FA7003F0F7FB384907
S21401237060682E70012210F0F3FC3448012108F049
S214012380CBFA2B78012BFCD13248072139221523B1
S21401239001700A21437081704D234321427182717D
S2140123A0C27102720022C370017142721722606804
S2140123B0284910F005FD0828F8D0274A2749134672
S2140123C0032003F8010B08684968C2F80100596048
S2140123D017226068204910F0F3FC0828F8D003F0B3
S2140123E055FB1F4B0A221A7002780146581CFF2A19
S2140123F008BF1C49162217F043FB172260681849CC
S21401240010F0DEFC0828F8D01749022008701722C1
S2140124106068154910F0D4FC0828F8D02B78022BF8
S214012420FCD101F04BFC0278FF2A02D00F4802F0E3
S21401243095FE0F490020012308603B60F8BD00BFF0
S214012440CC8CFF1FB002FF1F8C04FF1FF07B030024
S2140124508D04FF1F9402FF1F7404FF1F88010100F3
S214012460D402FF1FFCE802005C04FF1F0801FF1FE7
S2140124700C05FF1F08B5094B186840B1084B094900
S2140124801A6808680132111AC8291A6001D8002092
S21401249008BD10F019FE002008BD00BFB002FF1FE6
S2140124A0AC02FF1FE804FF1F2DE9F041A64BA74D24
S2140124B018682C68844286B000F0E1804FEA440830
S2140124C008EB0401A24FC4EBC102BE18BB5C181F87
S2140124D007281AD8DFE810F0C300C8002A003A001F
S2140124E019005800BE00080003F0D8FA711C20221B
S2140124F017F0C6FA03F0F2FA2C680134102C11D04A
S2140125002C60012006B0BDE8F081924802F026FE5C
S2140125104FF47A7003F022FB10F0D6FD2C680134DC
S214012520102CEDD100222A600120EBE771781929E1
S214012530E3D1F078431E062BDFD8DFE813F06A01FB
S2140125405B0149013D013301C100A2007478002CF2
S214012550E4D07078804917F0F9F801240CE0F719F7
S214012560407817F0F3F87B787B49002BD6D0787843
S21401257017F0ECF8172CD1D03019671C4278764941
S2140125807C1C002AEBD1C9E703F00AF907460028AC
S214012590C4D1724CE06912F039F8714971480F6084
S2140125A0394608F0B9F9C82003F0D8FA0121606865
S2140125B010F0A0FC4FF42040C4F20600122247732C
S2140125C06949009269483A46082317F019F987B213
S2140125D0606866493A4610F0F3FB0828F8D0B279ED
S2140125E0737996F804E0F778B078767860490197C1
S2140125F00290CDF800E003965E4817F001F987B225
S21401260060685C493A4610F0DBFB0828F8D05A4F60
S2140126105A4E0FCF0FC63B68337010226068574979
S21401262010F0CEFB0828F8D0554802F097FD554823
S214012630FF2108F0A7FB5448FF2108F0A3FBFF2168
S214012640524808F09FFB012001F022FF02F048F9F2
S2140126502C6852E74E494F4B0A681A604DE74E48C0
S21401266002F07CFD2C6848E74C4802F077FD01F04B
S21401267013FF00F01BFEFFF763FE012042E7002078
S21401268040E7B6F80500002840F0DB8030890028D6
S21401269040F0D380B6F80B00002840F0CA80F089DD
S2140126A0002840F0C280B6F81100002840F0B9803A
S2140126B0B08A00283FF432AFB17D08F0B7FA2DE7B3
S2140126C0A04401F0F7FAC4EBC8043F197B1D40EAA9
S2140126D00302920740F0C780011D07F10904A042DA
S2140126E038BF8B42C0F0BF80D7F805300360D7F8FB
S2140126F009700121476008220336B3185118D443E4
S2140127009F78531C64188B42875404F0010210D042
S2140127102AB1F418A278C25401338B4209D0F718B3
S2140127205A1CBF78B418C7540233A4788B42845419
S214012730F5D101F089FA002840F08780184802F0A8
S2140127400DFD2C68D9E600BFC004FF1F0C05FF1F56
S214012750EC02FF1F9C600300D401FF1FCC8CFF1FFF
S214012760B002FF1FF07B030000E90200B402FF1F66
S21401277018E90200EC04FF1F3CE90200C404FF1F35
S214012780B86003002C7C0300A07B0300E47B0300FD
S214012790AC02FF1FE804FF1F3001FF1F0801FF1FE7
S2140127A0E800FF1F02F02EF900283FF4B7AE2F48CD
S2140127B002F0D4FC2C68A0E62D4803C804AB83E8DD
S2140127C0030000221846012108F040F82C6894E620
S2140127D07179022944D003293FD001297FF48DAEB7
S2140127E0C820FF2108F022FA6420002108F01EFA12
S2140127F02C6882E67079B6F80710727AB37A00F020
S214012800B9FCB079B6F80B10727B01F051FD2C685B
S21401281073E6707900F0D2FBB07901F039FE2C68CE
S2140128206BE6F17C08F002FA42E7317C08F0FEF92B
S21401283039E7717B08F0FAF931E7B17A08F0F6F971
S21401284028E7F17908F0F2F920E7084802F086FC5B
S2140128504FF47A7003F082F970E74FF49660C0E7A0
S2140128604FF42F70BDE70921002245E7D46003002D
S21401287030E802002DE9F84307460E46904602F07E
S2140128808FFF012802D002F08BFF08B9BDE8F8835C
S214012890DFF850E0DFF85090DEF80030104D03EB23
S2140128A0430CC3EBCC0C09EB0C04D3F101034146FA
S2140128B04FF0080838BF002309F80C80E01C3246A8
S2140128C06770A670CEF8003017F0B3F81722686864
S2140128D0214610F075FA0828F8D0BDE8F88300BF45
S2140128E0CC8CFF1FE404FF1F9004FF1F2DE9F84363
S2140128F007460E46904602F053FF012802D002F02A
S2140129004FFF08B9BDE8F883DFF850E0DFF85090D4
S214012910DEF80030104D03EB430CC3EBCC0C09EB97
S2140129200C04D3F1010341464FF0090838BF0023D8
S21401293009F80C80E01C32466770A670CEF80030AD
S21401294017F077F817226868214610F039FA082838
S214012950F8D0BDE8F88300BFCC8CFF1FE404FF1F4E
S2140129609004FF1F40F2105010B502220121C1F65B
S214012970FF7007F02DFC44F2745444F2D440022157
S214012980C1F6FF74C1F6FF7004F028FB204604F080
S21401299093FB204604F088FA2046BDE8104003F079
S2140129A043BA00BF2DE9F04F624C054683B0884616
S2140129B0204629462678276907F098FC2378022BBB
S2140129C02FD05D480022022E02647ED0184623696D
S2140129D0052B96BF59494FF6FF7C31F813C00025E9
S2140129E00128ADF800508DF802502ED005D30228EC
S2140129F02ED0284603B0BDE8F08F022EF9D14FF451
S214012A002F70FF2108F012F96420294608F00EF90C
S214012A10232003216A468DF80060FFF767FF2846EA
S214012A20E8E7DFF81C91D9F8001009B1012E51D062
S214012A305FFA88F1424A404B284603F007FD0146FB
S214012A403C4807F031FC2078C1E7022ED1D1DFE700
S214012A50022E2CD0C820FF2108F0E8F86420294671
S214012A6008F0E4F8C820FF2108F0E0F864202946C1
S214012A7008F0DCF86078411E0122CBB293428DF853
S214012A8000209CBF2F4AD25C638888BFFF22012B9F
S214012A908DF801209ABF2C4AD35CFF236A46232077
S214012AA003218DF80230FFF721FF0120A2E79F42A4
S214012AB09FD00323232019466A468DF80030ADF8CF
S214012AC001C0FFF713FF284694E7314604F086FA63
S214012AD020787CE704F1180ABAE80F0009F5305EA1
S214012AE00EF1100BABE80F009AE80F008BE80F0011
S214012AF00821ABF1100004F073FB09F5305B0AF610
S214012B00CC408BED030A04F0B3FAA168626848462C
S214012B108BED0C0A03F02CF90AF6CC4004F018FDF4
S214012B200AF5CC5004F014FD0AF54B50283004F099
S214012B300FFD7DE71005FF1FD444FF1F54E9020077
S214012B407445FF1F50E9020060E90200014640F2A9
S214012B501050C1F6FF7007F07FBB00BF10B52B4CBD
S214012B602378022B22D80020294947F2B80201F027
S214012B7011FA38BB2078022829D8264903C9090347
S214012B8001F010FA00282DD12278022A2FD84FF40E
S214012B9080304FF4E02101F005FA00B910BD1E495E
S214012BA04FF4803207F05EFC012010BD03201B4964
S214012BB007F038FC0020164947F2B80201F0EAF99E
S214012BC00028D7D0154907F04DFC012010BD032081
S214012BD0134907F027FC0F4903C9090301F0E2F97D
S214012BE00028D1D00E4907F03DFC012010BD03207E
S214012BF009494FF4803207F015FC4FF480304FF44A
S214012C00E02101F0CFF90028C8D0C8E74001FF1F36
S214012C1064E90200F47A03006C5A0300185A0300B0
S214012C20405A0300022808B503D003280BD0012020
S214012C3008BD064B93E8030001F07CF9D0F10100D2
S214012C4038BF002008BDFFF789FFF7E7FC7A0300CD
S214012C502DE9F0418EB002F087FE002800F0B78023
S214012C6002F082FE0446C068754DC3077DD52A78FA
S214012C70012A03D90220734907F0D4FB724802F0F7
S214012C806DFA0CF0EDFA94E80F000AAC84E80F0038
S214012C900D9B204623F001010D9102F073FE28786A
S214012CA0012803D90220694907F0BCFB10F00CFA91
S214012CB02C78674A6748116847F2B40216F0A8FEF6
S214012CC010F0FF0F4AD0012C03D90220624907F009
S214012CD0A9FB624EDFF8B881F069614C11F096FCF1
S214012CE0594802F03BFAD8F800702468029708AEFB
S214012CF006AF009701965B482146082204AB07F011
S214012D0073FD40BB9DF81030002B3CD0297802297A
S214012D1071D8554A5348D8F80030214607F0F6FCDA
S214012D200246002862D12878022869D8D8F80020FF
S214012D304C48029204AB082200970196214607F000
S214012D4053FD9DF81020034608B9042A6ED00020D2
S214012D50464907F067FB0EB0BDE8F081022CFAD9B0
S214012D600320434907F05EFBF5E72C78022C28D8B0
S214012D7037493848096847F2B40216F049FE10F0A0
S214012D80FF0FA0D1E7E72B78022B29D8D8F800103F
S214012D9034480291009701962146012204AB07F0C0
S214012DA023FD80460028D6D19DF810000328D2D1F5
S214012DB0FFF7D4FE024640B340462E4907F032FBE9
S214012DC0C9E703202C4907F02DFB2C7871E72B4B24
S214012DD00FCB0AAC84E80F00204602F0D3FD3FE794
S214012DE003202749224607F01DFBCFE7002025498F
S214012DF007F018FBAFE70320234907F013FB88E72A
S214012E000320224907F00EFB90E7214A1548136874
S214012E100097029301962146042204AB07F0E4FCD6
S214012E20002898D19DF81010042994D128780128FB
S214012E3003D90220174907F0F5FA10F045F98AE799
S214012E404001FF1FA45A0300F400FF1FB85A0300F5
S214012E50047B030064E90200F05A0300CC8CFF1FD8
S214012E60DC7A0300A800FF1F252C0100C85B0300C5
S214012E70405C0300405B0300DC5A030038E80200B4
S214012E800C5B0300845B0300705B0300AC5B030018
S214012E90F494FF1F145C03000C4B1A68501CDC28CA
S214012EA0186001D100211960186849F2200200EB70
S214012EB0C0010748C4F200024FF4104300EB410181
S214012EC01161C4F20003034A1A6070476081FF1F54
S214012ED0D471FF1F5C5C030070B514462D4A06468C
S214012EE010700D462C482D4904700B7002F070F9D5
S214012EF0042E0BD03C219FED2A0A284602F0E8F961
S214012F00284632219FED260A02F0E2F9254B264E8D
S214012F101B682648336042F295011A19C0F64F1114
S214012F2081FB0261D617C6EBE106DC2101FB162602
S214012F3022461F4C23601F4B1E6000F0C3FE4FF459
S214012F403041C4F2030104220A621B48012107F042
S214012F50E3FC11F0AFFAB5F57A7F04D8092D11D844
S214012F6042F29F4500E05D254FF4C043C4F20303DF
S214012F705D60196841F001021A60186840F48031FA
S214012F80196070BD46F63660C0F2010090FBF5F59B
S214012F90EAE700BFBC71FF1FB971FF1FB871FF1FC1
S214012FA06666663F6081FF1FD071FF1FD471FF1FE9
S214012FB0A871FF1F6881FF1FF87B030070B582B000
S214012FC0042855D8DFE800F0567F7F0303005F4BE7
S214012FD05F49604D1870642214240A702C700190A9
S214012FE002F0F6F8019804280DD03C219FED5A0A0C
S214012FF04FF4967002F06CF94FF4967032219FED03
S214013000560A02F065F9554B554A1B685548136038
S21401301042F2950103F16404C0F64F1181FB0415D9
S214013020E217C2EBE505DC2101FB15444E4D2B6092
S2140130304E4B64221C6000F045FE4FF43041C4F252
S214013040030104224A480A62012107F065FC11F0D7
S21401305031FA4FF4C040C4F203004FF49C7343604E
S214013060036843F001010160026842F480330360A3
S21401307002B070BD48F22000C4F20400334AC369AE
S21401308000215B02117007D54FF4C040C4F2030063
S214013090036823F08001016048F22003C4F20403B0
S2140130A03348DA6922F48001D961002107F034FC43
S2140130B04FF43040C4F203000123284A036211682A
S2140130C027480160D4E7234A204E214C30706425FE
S2140130D014211170257002F07BF83C219FED1E0A29
S2140130E04FF47A7002F0F4F89FED1B0A32214FF488
S2140130F07A7002F0EDF81948194E036819483360E2
S21401310042F295015C19C0F64F1181FB0412E617D5
S214013110C6EBE2062A46144DDC212B60134B01FB5D
S21401312016441C6000F0CEFD4FF43041C4F203019A
S21401313004220F480A62012107F0EEFB11F0BAF9EA
S2140131404FF4C040C4F203005D2388E7BC71FF1F43
S214013150B971FF1FB871FF1F6666663F6081FF1F6A
S214013160D071FF1FD471FF1FA871FF1F6881FF1F59
S214013170F87B030070B504460E461546002851D06C
S214013180404A4149107041480B70057002F020F822
S214013190042C0BD03C219FED3E0A304602F098F8F5
S2140131A0304632219FED3A0A02F092F8394B3A4CFA
S2140131B01B683A48236042F295015A19C0F64F112E
S2140131C081FB0241D417C4EBE104DC2101FB14248A
S2140131D02A46334D2B60334B1C6000F073FD4FF4D1
S2140131E03041C4F2030104220A622F48012107F08C
S2140131F093FB11F05FF9B6F57A7F0ED95D264FF491
S214013200C043C4F203035E60196841F001021A600C
S214013210186840F48031196070BD092E2AD842F230
S2140132209F46ECE748F22003C4F20403154AD86926
S2140132301470420207D54FF4C041C4F203010B6873
S21401324023F08000086048F22001C4F20401164809
S214013250CA6922F48003CB61002107F05DFB4FF4BD
S2140132603040C4F2030001210A4A016210680A4B89
S214013270186070BD46F63660C0F2010090FBF6F6A7
S214013280BDE700BFBC71FF1FB871FF1FB971FF1FFB
S2140132906666663F6081FF1FD071FF1FD471FF1FF6
S2140132A0A871FF1F6881FF1FF87B030008B548F26D
S2140132B02003C4F20403124AD869002111704102A6
S2140132C007D54FF4C043C4F20303186820F0800109
S2140132D0196048F22003C4F204030A48DA6922F4AA
S2140132E08001D961002107F017FB4FF43040C4F28A
S2140132F003000123044A036211680448016008BD03
S214013300BC71FF1FF87B03006081FF1FD071FF1F98
S2140133102DE9F047824C8349E06888B010F090F9B7
S2140133208049E06810F0D2F97F49E06810F088F92A
S2140133307D49E06810F0CAF9FFF714FB4FF43043FB
S214013340C4F2030301221A627849794B794A0020B4
S21401335064250D701870107000F0B0FC0078FF281E
S21401336012D000F0ABFC0078FF2805D0724B01228A
S2140133701A6008B0BDE8F08702F012FA0028F5D00E
S2140133806E4801F0EBFEF1E702F00AFA0028E8D0F9
S2140133906B4F02204FF47A712A461423FFF79CFDE7
S2140133A03E68396875198D4205D9E06911F068F9EA
S2140133B03B68AB42F9D3DFF89C91D9F800503A68E4
S2140133C006F16E0A00219245009101910291039146
S2140133D004910591069107915BD95A4E8846D9F812
S2140133E00000A8424DD0E9004B1936F8132090B2E0
S2140133F010B9009B5A1C0092481906EB40035A88E4
S21401340090B210B9019B5A1C0192481906EB400371
S2140134109A8890B210B9029B5A1C0292481906EB80
S2140134204003DA8890B210B9039B5A1C03924819DC
S21401343006EB40031A8990B210B9049B5A1C0492F9
S214013440481906EB40035A8990B210B9059B5A1CDD
S2140134500592481906EB40039A8990B210B9069B6B
S2140134605A1C0692491906EB4100C3899AB212B951
S2140134700799481C0790013508F10108DC2D08BFA3
S2140134800025E06911F0FCF83B685345A7D34FEAE5
S2140134906801009A91421ADB0198814217DB029B70
S2140134A0994214DB039A8A4211DC049881420EDBAE
S2140134B0059B99420BDB069A914208DB07988142ED
S2140134C005DB00F0FBFB0021017000F0BDFB48F2BC
S2140134D02003C4F204031C4AD8690021400211707B
S2140134E007D54FF4C043C4F20303186820F08001E7
S2140134F0196048F22003C4F204031448DA6922F47E
S2140135008001D961002107F007FA4FF43040C4F278
S214013510030001230362D9F800200D490A6020E761
S214013520CC8CFF1F5400FF1F0000FF1FBA71FF1F46
S214013530BB71FF1F6581FF1F5C81FF1FE8600300F1
S214013540F894FF1FD471FF1FBC71FF1FF87B0300A7
S214013550D071FF1F6081FF1F2DE9F001A74A4FF0D0
S2140135600108B8F1100F10465FFA88F336D002EB67
S214013570080612F8084016F8015CA542414608F113
S214013580FF3C24D2013BDE0715D5D9B202F808501C
S2140135904B1E02F80C40C55C445CA5429C460AD30F
S2140135A015E0075D465DB74211D257551655C55C05
S2140135B0445CA5420BD2555413F0FF0502F80C40AB
S2140135C005F1FF34E1B201F1FF339C46E9D108F180
S2140135D00108B8F1100F5FFA88F3C8D15178137853
S2140135E0957886488B4214BF01260226A942C478E4
S2140135F000F0D580A54200F0E5800079844200F015
S214013600D580FF2101265579A84200F0D880FF2EEB
S21401361063D90346314601209479A54263D0884296
S21401362000F2AF8000F00D810125D07984425FD091
S2140136308D4200F2A28000F0FF800125147AA0429C
S2140136405BD08D4200F2958000F0F1800125507A22
S214013650844257D08D4200F2888000F0E380012535
S214013660947AA04253D08D427BD800F0D6800125B3
S214013670D07A844250D08D426FD800F0C98001259F
S214013680147BA0424DD08D4263D800F0B280012554
S214013690507B84424AD08D4257D800F0A580012441
S2140136A0927B904247D08C424BD800F09880012004
S2140136B0884244D800F0D08051490A68934201D329
S2140136C0531EDBB24F48017899425ED003704E4BD1
S2140136D000221A70BDE8F001704700F0B7800120A3
S2140136E09479A5429BD10130C5B2D07984429FD14D
S2140136F06C1CE5B2147AA042A3D1681CC5B2507AFC
S2140137008442A7D16C1CE5B2947AA042ABD1681C66
S214013710C5B2D07A8442AED16C1CE5B2147BA0420D
S214013720B1D1681CC5B2507B8442B4D1927B6C1C6B
S2140137309042E4B2B7D1601CC0B28842BAD91346EF
S214013740BAE7034621460120B2E72346294601246B
S214013750A6E72946034601259AE729462346012579
S2140137608EE729460346012582E729462346012599
S21401377076E729460346012569E7294623460125BA
S2140137805CE72B46014601254FE71F4801784A1C96
S214013790D1B24A0701709DD11C4803709AE7751C87
S2140137A0A14210D0107984427FF42BAF01215579C4
S2140137B020464E1CFF21A842F6B27FF428AF741CA7
S2140137C0E0B229E701251079691C8442EFD0FF2970
S2140137D07FF417AFA34200D22346012613E798428F
S2140137E07FF665AF034662E79C427FF658AF2346F5
S2140137F055E798427FF64BAF034648E7C071FF1F77
S214013800F8E802006C81FF1FBB71FF1FBA71FF1F32
S2140138109C427FF634AF234631E798427FF627AFC6
S214013820034624E79C427FF61AAF234617E79842E1
S2140138307FF60CAF034609E79C427FF6FEAE2346B1
S214013840FBE69D427FF6F0AE2B46EDE698427FF60C
S21401385046AF0346012043E7934238BF1346DBB227
S2140138602AE700BF2DE9F04F48F26010B84EB94D77
S21401387096F800802B68C1F6FF7099B0026808F1CF
S214013880FF31CCB29342089478D04FEAC309B24FC5
S214013890B24C09EB03004100781847F6B83CB0F883
S2140138A010A037F801B02268ABF5006B1FFA8BFB4E
S2140138B027F801B04188A1F5006189B2418081886D
S2140138C0A1F5006189B28180C188A1F5006189B244
S2140138D0C1800189A1F5006189B201814189A1F503
S2140138E0006189B241818189A1F5006189B2818136
S2140138F04FF0640BCFF6FE7C4EF261111AFB0BCC37
S214013900C9F6C841B0F80EA081FB0CB101EB0C0B57
S214013910AAF500614FEAEC7CDFF848A20132CCEB55
S2140139202B2C89B2B8F1040F8AF800C02260C1813D
S21401393061D0A8F1030801F05BFDB8F1010F2B6817
S21401394057D90133089ADC2B08BF00230120012A2E
S2140139502B6018D921680F290DD9814D814E2A78FF
S21401396036788149531CDBB20F2B8E542B7000F234
S214013970B2800022226019B0BDE8F08F089A774C19
S2140139800020012AE6D8794F39689942E2D1DFF85A
S214013990FC810BA9D8F8000010AA00F0A5F9272091
S2140139A011210BAAFEF766FF7148D8F800200078AF
S2140139B03B68317842F295068218C318C0F64F1656
S2140139C086FB029B86FB030C4FEAE27AD8174FF080
S2140139D0DC09CAEBEB0AC0EBEC0009FB1A2209FB77
S2140139E010330129C8F800203B6000F093800120C5
S2140139F0B0E74FEAC30947F2AC10C1F6FF7099442D
S214013A0002684FEA490107927A18785AB2F802B06A
S214013A10B2F804A0B2F80690B2F808805789ADF85B
S214013A2008709789D189079AADF800104AF30B1AE6
S214013A30CDF818A049F30B19BDF800A0CDF81490E5
S214013A4048F30B1848F24C19CDF8248048F24C1C68
S214013A504AF30B18C1F6FF79DDF81CA0BDF8081073
S214013A60C1F6FF7C40F30B1009F80A006244069881
S214013A7082F8078041F30B1C90700799059882F82D
S214013A8005C047F2AC1A0831C1F6FF7AD070099822
S214013A90CAF800104BF30B1B47F30B17102982F8DB
S214013AA001B0107197717FF44CAF324F324A3B78B8
S214013AB0D05C324AFEF7DEFE3978481CC3B247F2C4
S214013AC0AC11042BC1F6FF7108BF002300223B7026
S214013AD00A602B6835E72A4F2A4EFFF73DFD3A78F4
S214013AE011200121B218FEF7C5FE3878335C052B8C
S214013AF00CD90F2B06D8012001F05AFB00212970A2
S214013B00012036E7002001F053FBF7E7022001F021
S214013B104FFBF3E710A89DF83C10FEF743FF002883
S214013B203FF465AF48F26011C1F6FF71164A0868A6
S214013B3013782860C21886FB02A6D117C1EBE603EC
S214013B4009FB1322C8F800003A60012002E700BF13
S214013B50BC71FF1FD071FF1FD471FF1FB471FF1F0F
S214013B606581FF1F6481FF1FC071FF1F6881FF1FF2
S214013B70B871FF1FB071FF1F685C03004C81FF1F07
S214013B80BA71FF1F90E80200B971FF1FA871FF1FED
S214013B90064B186840B106490A782AB94FF43043F3
S214013BA0C4F2030350201860704700BF5C81FF1FFA
S214013BB0BC71FF1F4FF430436846C4F2030320F084
S214013BC007011A698D4631B447F2B413642404FB25
S214013BD002F0C1F6FF73A0F54A3442F605051868EF
S214013BE0C4F6543548F26412FC3CC1F6FF72A5FBDC
S214013BF004510D0A01301570186031BC85467047B6
S214013C0038B50D480D4C01F0A9FA0D4B1D686968D1
S214013C10AA68EB6828680FC455F8100F6968AA6887
S214013C20EB680FC455F8100F696803C40548BDE872
S214013C30384001F093BA00BFE86003007081FF1FAF
S214013C40D47A030084610300124B10B51C6801216D
S214013C50204600F06FF920B10F4A1378012093B97E
S214013C6010BD20460D49282200F034F904460028EC
S214013C70F2D10948017801290AD90220084906F03B
S214013C80D1FB204610BD074906F0CCFB012010BD34
S214013C90204610BDD47A03004001FF1F7081FF1F2C
S214013CA0A85C03006C5C030048F27010C1F6FF705C
S214013CB0704700BF004870478881FF1F0048704763
S214013CC09181FF1F30B448F29C1348F2A01548F2C8
S214013CD09814C1F6FF75C1F6FF74C1F6FF7328602C
S214013CE021601A6030BC70472DE9F04F694BDFF850
S214013CF0A8B1D3F800802DED028B07EE108A0027BD
S214013D00B8EEC78A83B00F74A2F1040A8946B8F1E7
S214013D10000F00F0B480DBF8005048F2A011C1F6A5
S214013D20FF7108F1FF34A84209684FF0000C04F057
S214013D300104024600D3421B02EBC20601EB460217
S214013D40012332F817604345B2B212FB02F692B273
S214013D5064D0002C42D01C18AC4228BFC5EB04042A
S214013D6004EBC40401EB440434F81740A4B214FB7A
S214013D7004664BB112B20F2A7DDC0F3202DA22B290
S214013D800F3201DB0CF1010C01334345A2B225D100
S214013D9044E022B20F2A01DC0CF1010C01331A189F
S214013DA0AA42A4B200D3521B02EBC20201EB4202AA
S214013DB032F8172092B212FB02665BB124B20F2CC6
S214013DC025DC14F10F0F03DA14B214F10F0F01DB27
S214013DD00CF1010C0133434592B21FD01C18AC42C2
S214013DE028BFC5EB040404EBC40401EB440434F817
S214013DF01740A4B214FB0466002BCFD012B20F2AD0
S214013E00C7DC0F32C8DA22B20F32C7DBC4E714B2FE
S214013E100F2CDDDD0133434592B2DFD1BCF1090F32
S214013E20CCBF0024012407EE906AB8EEE70A80EEC4
S214013E30080AF1EEC00AF4EE600AF1EE10FA21D19A
S214013E40BCEEE01A10EE903A11EE101A4AF8043F52
S214013E5029F8171099F8102004FA07FC01374CEAE4
S214013E600201082F89F810107FF451AF03B0BDECA2
S214013E70028BBDE8F08F22B20F2A83DD84E701248E
S214013E804646D0E7019017F039FB0198F0EE400A5C
S214013E90D6E700BF9C81FF1F9881FF1F48F2A41040
S214013EA04AF2F54208B58021C0F20102C1F6FF7060
S214013EB006F0F4FA49F2F443C1F6FF73186040F2D3
S214013EC0A800C1F6FF7006F0BFFBBDE80840FFF78B
S214013ED097BE00BF70B5124B1B78022B82B004460A
S214013EE00E46154615D871B60E490F480A68334670
S214013EF0009221462A4606F0B1FB61B638B1009021
S214013F000A4900202A46234606F08CFA012002B010
S214013F1070BD03200649234606F084FAE3E700BF96
S214013F204001FF1FF494FF1FA800FF1FE05C030081
S214013F30C05C030070B5124B1A780D03022A82B0DA
S214013F400E46044614D871B60E490F480B682A4629
S214013F50214606F0E5FA61B640B1019000940020D2
S214013F600A4932462B4606F05DFA012002B070BDC2
S214013F7000900749032032462B4606F053FAE2E743
S214013F804001FF1FF494FF1FA800FF1F545D0300AC
S214013F901C5D030047F6FC23C0F203031B681818D8
S214013FA0FFF798BF47F6FC2310B4C0F2030304469C
S214013FB018680A462018214610BCFFF78BBF00BFC1
S214013FC048F27823C1F6FF7301221A60704700BFDA
S214013FD048F28023C1F6FF7301221A60704700BFC2
S214013FE0054B06491A68501C18600B681BB9044A31
S214013FF004491068086070477C82FF1F8482FF1F97
S214014000F894FF1FB482FF1F2DE9F04182B002AD84
S214014010154C05F8011D864617462068134E0021EB
S2140140207246984610F084F900233360012200237B
S2140140302068294610F07CF80828F7D03068002858
S214014040FCD00B4D002129600123206841463A46E9
S21401405010F0EEF80828F7D02A68002AFCD00020D5
S21401406002B0BDE8F08100BFCC8CFF1F7882FF1F35
S2140140708082FF1FF0B585B0104D8DF80010074601
S21401408019460DF1010016460D4C15F0D2FC2868B4
S21401409000213A4610F04CF9002323600136012333
S2140140A028686946324610F043F80828F7D0206899
S2140140B00028FCD0002005B0F0BD00BFCC8CFF1F4F
S2140140C07882FF1F48F22003C4F204034FF44042F3
S2140140D0596930B5C4F204024FF2C004C4F20F04A9
S2140140E021F040004FF4807558611562636943F40E
S2140140F0807289B062610A2001F030FDE16841F406
S21401410080750A20E56001F029FDE06840F48073BF
S214014110E3600A2001F022FDE26842F48071E1606A
S2140141200A2001F01BFDE56845F48073E3600A2070
S21401413001F014FDE06840F48072E2600A2001F0AC
S2140141400DFDE16841F480750A20E56001F006FD89
S214014150E36843F48072E2600A2001F0FFFCE06845
S21401416040F48071E1600A2001F0F8FCE56845F44E
S2140141708073E3600A2001F0F1FCE268444842F4EF
S21401418080750021E56006F0C7FB642001F0E6FCBF
S214014190404C3F48012106F0BFFB642001F0DEFCE5
S2140141A020683D4C0FF05AFF642001F0D7FC002038
S2140141B007F0CAFE0AF03CFD15F0BCFA14F018F838
S2140141C014F0A0FAFFF770FD18220546FF2102A899
S2140141D015F050FC02A92846182215F019FC217882
S2140141E028BB00294ED111F0B7F813F06BFA14F082
S2140141F0E3FA09F0A9FA0AF03BFD2078022837D83D
S2140142004FF4FA700A21282208F076FF044630BBE4
S21401421009F00AFF09F018FF09F00EFF1F4A1460A3
S2140142201F48092109B0BDE8304006F0ABBB0129A3
S21401423003D902201B4906F0F5F8032105F10C000D
S21401424009F020FC0321284609F0F4FC11F090F84F
S21401425009F0EAFE09F0F8FE09F0EEFEC5E72821AE
S21401426000914FF4FA7210490A2306F0FBF8D7E7DB
S2140142702823009303200C494FF4FA720A2306F010
S214014280D1F8BDE70120094906F0CCF8ABE700BF3D
S2140142901C7C0300CC8CFF1F4001FF1F8482FF1F84
S2140142A0887B0300FC5D03002C5E0300A85D030011
S2140142B070B50C4694B01546002871D0002007F062
S2140142C043FE792007F06CFD782007F017FD2046A5
S2140142D007F0C0FB204607F093FC4FF4FA6007F0A6
S2140142E097FA102007F0F4FA002D6FD15F4C0CAE50
S2140142F0304607F02FFB04A807F09EFB08A807F03E
S21401430065FA02A807F0C2FA0AA808F0EBFE06A8AA
S21401431007F06EFC2078554C02286AD8BDF81000CC
S21401432044F24024C0F20F0494FBF0F009F090FA36
S214014330BDF8101094FBF1F009F0A4FABDF81020B6
S21401434094FBF2F009F0BAFA494B1A461868596814
S2140143501C7A0EAB03C352F80C0F1C705168127A0C
S21401436011AB03C30EA81A700AF06AFBBDF8201041
S214014370C90309F065FA0EA80AF062FB9DF8082049
S214014380D10309F0F9FA11A80AF05AFBBDF8283052
S214014390D90309F0F9FA37490120086014B070BD55
S2140143A0324C2278022A57D84FF4FA700A21282272
S2140143B008F0A2FE0446002845D109F035FE09F0B2
S2140143C043FE09F039FE2B480460E7E70CAE274CA4
S2140143D0304607F0BFFA2378012B06D9022026497A
S2140143E0BDF830302A4606F01DF8284607F0DAFAFE
S2140143F07EE703202149BDF81020BDF8203006F0E5
S21401440011F82178022989D90320BDF810201C490A
S2140144109DF8083006F006F82278022A7FF67EAF6D
S2140144200320BDF828301749BDF8182005F0FAFF1B
S2140144302378022B7FF672AF03201349BDF8302094
S21401444005F0F0FF6AE7282100914FF4FA720F4950
S2140144500A2306F007F8A1E72823009303200B4957
S2140144604FF4FA720A2305F0DDFF9DE74001FF1FB6
S21401447048E802008482FF1F885E0300B85E0300DE
S214014480085F03005C5F0300A85F03002C5E030067
S21401449032210022FFF70CBF10B5164B1878022800
S2140144A082B01CD84FF4FA700A21282208F024FEA4
S2140144B0044650B909F0B8FD09F0C6FD09F0BCFD87
S2140144C00D4A2046146002B010BD282300930B4904
S2140144D04FF4FA720A2305F0C5FF0120F3E72821FD
S2140144E00091032005494FF4FA720A2305F09AFF5A
S2140144F0D8E700BF4001FF1F8482FF1F2C5E030028
S21401450048F2BC23C1F6FF7393ED000A704700BF63
S214014510F0B5AB4DAB4F29683A6849F2DF33881ADC
S21401452000EB8004C0F20403B3EB440FA1B039D210
S214014530A54C2678022E00F23E8110A813A908F099
S214014540C9F8830740F130812178022900F22281DF
S2140145504FF4FA700A21282208F0CEFD06460028FC
S21401456040F0E98009F060FD09F06EFD09F064FD98
S214014570964B1E600021964806F0CEF901210A46A8
S214014580944806F063F9944800F0E8FD642001F0D1
S214014590E5FA2078022800F27A81002104200A46F2
S2140145A00EF0B4FD8D4E8E4C326823689A4200F0B0
S2140145B0C0800DF10F01009107A809A904AA02AB5A
S2140145C007F0E8FE9DF80F0008B9366826609DF8EA
S2140145D0082012F0700F40F0B78002F00803D9B23D
S2140145E006AC002940F0C58013AE04A90BA808F05C
S2140145F01FFD0146002800F03B8109F041FE2146DF
S214014600304604AA09F08AF8214604AA0DA809F042
S2140146106DF8214604AA10A809F074F8714B0E999A
S2140146205E68DDF834E01C680F9A98688E1BB61138
S214014630C4EB0E04A411101A06FB06F604FB04666E
S214014640841104FB0460B0F5803F674E0ED93468D0
S2140146500CB92C6834602D68601B022808D9584CA8
S214014660C3F800E0256859603D609A60002737600E
S214014670BDF94E301098ADF86C30119C129BBDF907
S21401468052C0BDF95670BDF95A60ADF86EC005133B
S2140146904FEA6E1E4911521124131813ADF87070AB
S2140146A0ADF87260ADF874E0ADF87610ADF878202C
S2140146B0ADF87A50ADF87C40ADF87E0001F070F8A8
S2140146C0002840F0A180494B0D9A1E681A60B21A64
S2140146D00E9D5F68464C0F989E6846495D6004EEE5
S2140146E0102ADFED454AB8EEC45A7F1B06EE907AD3
S2140146F0D4ED007A25EE246AB8EEE67A361A46EE4E
S214014700067A05EE906A27EE240AF8EEE50A40EEF0
S214014710007A20EEA41A0A68986041EE017A013206
S214014720642AC4ED007A0A6000F0B680012021B048
S214014730F0BD0020FBE7282100914FF4FA722F49C3
S2140147400A2305F08FFE15E7049907A806AC09F0C1
S2140147506BFB214605A806F0F7FD0699059809F0BA
S2140147604DFC9DF8082002F00803D9B200293FF459
S2140147703BAFBDF92400BDF926E0BDF92830139002
S21401478013AE049ACDF850E030460021159309F097
S214014790DFFA2AE728220092032018494FF4FA721A
S2140147A00A2305F03FFED3E60EF08EFC217802299F
S2140147B07FF6CEAEEEE70320114905F033FEBCE6E8
S2140147C0F894FF1FB482FF1F4001FF1F8482FF1F62
S2140147D0F07B0300887B0300846103007C82FF1F5B
S2140147E02482FF1F8882FF1FB882FF1F2882FF1FB7
S2140147F0BC82FF1F3482FF1F000080372C5E03003F
S214014800C85F0300000080381C2014211BAAFEF795
S21401481031F8BDF96C00BDF96E10BDF97020BDF917
S214014820723005EE900A06EE101A06EE902A07EE92
S214014830103A5FED0C7AB8EEC60AF8EEE60AB8EE64
S214014840C71AF8EEE51A20EE272A60EEA72A21EE0F
S214014850273A61EEA73A17A88DED172ACDED182A4B
S2140148608DED193ACDED1A3AFEF770F901205EE7A3
S214014870BDF92C00BDF92EC0BDF930301390049A55
S214014880CDF850C03046159309F01CFBB5E6032061
S2140148900F4905F0C7FD80E617EE900AFCF714FDF8
S2140148A002460B460B480C490C4E14F0A9FF85B284
S2140148B0706808492A460EF083FA0828F8D04FF4A3
S2140148C0FA600023FF21236006F0B0F901202EE7ED
S2140148D0E85F03003882FF1FF45F0300CC8CFF1FE4
S2140148E070B58AB007A904A807F0F4FE04460DF1D6
S2140148F00A0007F0D9F9079ABDF80A300898099E08
S21401490003FB00F103FB02F503A803FB06F3089182
S2140149100993079507F09CF9DDED045A9DED056AAC
S2140149209DED060ADDED037AF8EEE56AB8EEC67A85
S214014930F8EEC00A26EEA71A67EE871A27EEA02A17
S214014940FDEEC12ABDEEE13AFDEEC23ACDED042AF6
S2140149508DED053ACDED063A09F066FB09F074FBDC
S21401496009F06AFB072C1FD01E4E1F4A1F4B20481A
S2140149702049214D14F0010F18BF324614F0020FE2
S21401498018BF334614F0040F1C4C08BF2646009689
S21401499014F036FF84B26868154922460EF010FA04
S2140149A00828F8D00AB070BD154E114C124D0FCE26
S2140149B00FC496E8030023460A0C43F8040B07A825
S2140149C019800321A27109F05DF804A8032109F0FA
S2140149D031F9162409F028FB09F036FB09F02CFB07
S2140149E0D9E700BFA45C0300146003001C60030049
S2140149F09482FF1F48600300CC8CFF1F24600300D5
S214014A0030600300F0B583B0FFF74EF900F10C05F6
S214014A102946044607F05EFE07460DF1020007F040
S214014A2043F9BDF802306269E668216903FB02F0CA
S214014A3003FB06F603FB01F121616061E66001A854
S214014A4007F006F9D4ED005A94ED016A94ED020AD6
S214014A50DDED017AF8EEE56AB8EEC67AF8EEC00A40
S214014A6026EEA71A67EE871A27EEA02AFDEEC12AC0
S214014A70BDEEE13AFDEEC23AC4ED002A84ED013AFC
S214014A80C4ED023A09F0D0FA09F0DEFA09F0D4FAD8
S214014A90072F0CD00F4B1E781EB101200E4905F0D2
S214014AA0C1FC10F059FC0126304603B0F0BDFFF7FB
S214014AB0CBF803210646284608F0E4FF20460321EA
S214014AC009F0B8F809F0B0FA09F0BEFA09F0B4FA3C
S214014AD0EAE700BF4001FF1F586003006E4B6F4AB4
S214014AE06F4812682DE9F04F1D681C68117824F094
S214014AF01F0415F0200F04F1200489B00CBF4FF0FD
S214014B00FF0C4FF0000C0460042900F28F80DFE8F0
S214014B1011F09400A300CF009E0105001F681E68D7
S214014B20D3F800E01C6848F21F51C5F2EB11A1FB57
S214014B300757A1FB06864AF6AB253F09CAF6AA2502
S214014B403609A5FB079CA5FB06A54FEA5C086D0880
S214014B5008EB480905EB4505C9EB0707761B02EB91
S214014B60C70502EBC607A1FB04B16E684FEA11192F
S214014B70B96896F800C096F801A0B7784D780E7817
S214014B8091F8028032210EF1320B01FB1944C4EB7D
S214014B900B0404604349097859B3DFF810E1724504
S214014BA027D01A68D3F800E02EF0FF0E0EF5807EAF
S214014BB0A64506D2384C246824F0FF0404F5807418
S214014BC00460022900F0178291058A0D111110D197
S214014BD01B6823F00F071037A74280F00E822E4C79
S214014BE0226822F00F0310334FF0FF0A03600F46CE
S214014BF0D4462D4C6146206806F0C4F860685146DC
S214014C0006F0C0F8A068394606F0BCF8E068314600
S214014C1006F0B8F82069294606F0B4F860694146FE
S214014C2006F0B0F8012009B0BDE8F08F4FF000089B
S214014C30454646464746C246ACE75468916894F8EE
S214014C4000C094F801A0A7780E784D7891F80280FC
S214014C504FF0FF3404609DE71F681E681C6887F0EC
S214014C60200586F02001C5F34017C1F3401602EB7C
S214014C70C70502EBC6016F68896897F800C097F808
S214014C8001A00E78BF784D7891F8028024F01F04B9
S214014C90203404607EE700BFF894FF1FCC82FF1F1C
S214014CA0C482FF1FC082FF1FD000FF1F8461030064
S214014CB0D3F80090D2F804B0D2F80CE019681D6859
S214014CC097680395C9F3012CACF1020ABAF1010FFA
S214014CD08CBFDA46F2460CF1FF35012D8CBF5D46DE
S214014CE0754616699AF800B095F801E0CDF804B05B
S214014CF0C1F30128A8F1020C9AF801B09AF802A0B3
S214014D00CDF808B008F1FF34BCF1010F8CBFB846EE
S214014D10B046012C8CBF3C46344698F800B095F856
S214014D2000C0AF78CDF810A05FFA89F998F801A015
S214014D3098F80280CDF814B026786578A478CDF876
S214014D401C80C9F1FF0B0CFB09FC0EFB09FE07FBDF
S214014D5009F7DDF80490CDF818A05FFA81F8C8F1DC
S214014D60FF0A0BFB09CC06FB08F6DDF8109005FBE5
S214014D7008F504FB08F4DDF8088009FB0B7708FB4F
S214014D800BEEDDF81C90DDF81880DDF814B048F263
S214014D908101C8F2800108FB0A5509FB0A440AFB97
S214014DA00B6681FB0C9B81FB0789CDF8149081FB78
S214014DB00689CDF8189081FB0589CDF8089081FB0E
S214014DC0048981FB0E8ACDF81C900BEB0C084FEA88
S214014DD0EC7C0AEB0E0BCDF810C04FEAEE7A029986
S214014DE0DDF814E0DDF81CC0CDF80480DDF818808D
S214014DF0CDF800B00EEB0709DDF804B001EB050EA7
S214014E000CEB0401DDF810C0B044E417F617CCEB48
S214014E10EB1CC6EBE816C4EBE1180399CDF804C009
S214014E20DDF800C04C1CFF17ED1701990460CAEBB2
S214014E30EC1AC7EBE917C5EBEE155FFA81FC5FFAD2
S214014E408AFAFFB2F6B2EDB25FFA88F8A2E61E68F9
S214014E50D2F804901968D2F80CC01D68D2F808E0A0
S214014E600395C6F3811AAAF1020B0AF1FF35BBF1CD
S214014E70010F8CBFCA46E24617699AF800B0C1F323
S214014E80811808F1FF34A8F10208012D8CBF4D46A8
S214014E906546B8F1010F8CBFF046B846CDF804B0B0
S214014EA09AF801B09AF802A095F800C0CDF810A0C3
S214014EB0012C8CBF74463C4698F801A095F801E099
S214014EC0AF78CDF808B04FEA86095FFA89F998F805
S214014ED000B098F8028026786578CDF818A0A478F6
S214014EE0CDF81C80C9F1FF0A4FEA81010CFB09FCD1
S214014EF00EFB09FE07FB09F7DDF80490CDF814B0A8
S214014F005FFA81F8C8F1FF0B0AFB09CC06FB08F62D
S214014F10DDF8109005FB08F504FB08F4DDF80880C1
S214014F2009FB0A7708FB0AEEDDF81C90DDF818800D
S214014F30DDF814A048F28101C8F2800108FB0B5588
S214014F400BFB0A6609FB0B4481FB0C9B81FB078963
S214014F50CDF8149081FB0689CDF8189081FB058960
S214014F60CDF8089081FB048981FB0E8ACDF81C9050
S214014F700BEB0C084FEAEC7C0AEB0E0BCDF810C0DD
S214014F804FEAEE7A0299DDF814E0DDF81CC0CDF8A0
S214014F9004800EEB0709CDF800B001EB050EDDF835
S214014FA004B0DDF818800CEB0401DDF810C0E4173E
S214014FB0CCEBEB1CB044CDF804C0C4EBE111DDF83A
S214014FC000C0039CF617C6EBE816FF17DDF8048051
S214014FD0ED17CAEBEC1AC7EBE917C5EBEE15013472
S214014FE05FFA88FC5FFA8AFAFFB2F6B2EDB25FFAB0
S214014FF081F80460CEE5D2B2E8E54FF0FF0A0F462D
S214015000D446F6E52DE9F047FEF754FE90F8008009
S21401501090F801C08778C6780579B8F1FF0918BFFE
S2140150204FF00109BCF1FF0F18BF4FF0010904460C
S214015030FF2F18BF4FF00109FF2E18BF4FF00109CF
S2140150404079A179E279237AFF2D18BF4FF0010943
S214015050FF2818BF4FF00109FF2918BF4FF00109BB
S214015060FF2A18BF4FF00109FF2B2BD0DFF87890ED
S21401507099F800A0BAF1010F0ED90220184905F0DF
S214015080D1F994F8008094F801C0A778E6782579DC
S2140150906079A179E279237ADFF854A0DFF8549099
S2140150A0104C8AF800808AF801C08AF8027089F8E4
S2140150B0006089F8015089F8020021706270A370BF
S2140150C0BDE8F087B9F1000FD0D1074B187800285A
S2140150D0F6D006490120BDE8F04705F0A3B900BFA8
S2140150E0406103002801FF1F4001FF1FF460030019
S2140150F02C01FF1F3C01FF1F064B186838B10649FB
S214015100064B0A681868824201D3FFF7E7BC002005
S214015110704700BFCC82FF1FF894FF1FC482FF1F99
S214015120074B186800B9704706490A68002AFAD082
S214015130054B064918680A689042F4D3FFF7CEBCBF
S214015140C882FF1FCC82FF1FF894FF1FC482FF1F77
S21401515048F2C823C1F6FF731860704700B5104BBC
S214015160984283B010D00F490F4A086013680F4960
S2140151700B6038B112689A4204D303B05DF804EBB1
S214015180FFF7ACBC03B000BD0190FFF73BFF05493C
S2140151900198054A0860136804490B60EAE700BFF6
S2140151A0E800FF1FCC82FF1FF894FF1FC482FF1F79
S2140151B0044B1A78824204D0034918700A680348DF
S2140151C002607047C082FF1FF894FF1FC482FF1F52
S2140151D02DE9F00148F2B03048F2703448F2D0219F
S2140151E048F21032C1F6FF74C1F6FF70C1F6FF71C6
S2140151F0C1F6FF72A04684460F461646002348F8BD
S214015200043B4CF8043B47F8043B46F8043B08F1E2
S21401521004080CF1040C0437043648F8043B4CF837
S214015220043B47F8043B46F8043B48F8043B4CF87B
S214015230043B47F8043B46F8043B48F8043B4CF86B
S214015240043B47F8043B46F8043B48F8043B4CF85B
S214015250043B47F8043B46F8043B48F2F03548F86F
S214015260043B4CF8043B47F8043B46F8043BC1F6C4
S214015270FF75C8F8003063604360CCF800304B60BF
S2140152803B605360336023626362A362E36223631D
S2140152906363A363E363036243628362C36203637C
S2140152A043638363C3630B624B628B62CB620B63A4
S2140152B04B638B63CB63136253629362D362136354
S2140152C053639363D3632B70BDE8F001704700BF4F
S2140152D02DE9F04F2DED028B3F4F3E78012E83B026
S2140152E0B0EE408A05D9012003B0BDEC028BBDE8C3
S2140152F0F08F07EE101A00EE100AF8EE476ADFED9F
S214015300370AF8EE407A26EEA01A4FEA8608C1EE72
S214015310271A013611EE900AFBF7D6FF41EC100B67
S21401532015F0E6FE38EE082A55EC104B12EE100A80
S214015330FBF7CAFF22462B46FCF71AF82246CDE9B0
S21401534000012B4620462946FBF760FE8B460021CE
S214015350DDE900238246C3F6F0710020FBF754FE18
S21401536028EE088A1E4C04EB0809044618EE100ABB
S2140153700D46FBF7A9FF02460B4620462946FBF7DA
S21401538045FE524604460D465B4600204FF08041DE
S214015390FBF73AFE0B46024629462046FCF712F971
S2140153A0FCF7A8FA0F4AC9F800005946504602EB26
S2140153B00804FCF79FFA0C4B2060DDE9000103EBC3
S2140153C00804FCF797FA206008483E70804488ED90
S2140153D0008A002088E700BFF083FF1FDB0FC9406B
S2140153E06883FF1F5083FF1F5883FF1F6083FF1FC3
S2140153F02DE9F00FB34B19788AB083460022880056
S214015400099107900592D846099F002F00F04A811E
S214015410B8F80070AC4D059EDFF8B492AB4C03951E
S21401542048F27033B00095ED007A39B2D9ED007AC2
S214015430C1F6FF73049405EE901A1C1894ED006AE9
S21401544027EE270AF8EEE56A48F2B032C1F6FF7297
S21401545060EE060A171857EE260A97ED001A48F26C
S214015460D025DFF870B2DDF810A00799C1F6FF75F8
S2140154702D1847EE010AD5ED001A9BED002A48F2D9
S2140154801036C1F6FF76361841EE820AD6ED002AAE
S2140154909AED005A4FF0040C45EE620AA1F1040A97
S2140154A0CDF818C016EE101ABC46BDEEE03A4CF820
S2140154B0201B204616EE901A3346CDF804C011EE96
S2140154C090CA40F8201B43F820CB10EE901A13EE3A
S2140154D010CA2A468DED083A42F8201BA8F800C0EB
S2140154E0DDF81CC004216145CAF3800A00F0DA80A9
S2140154F0BAF1000F00F0E2800399B8F800A0043179
S21401550009F10409D1ED003A99ED004A0FFA8AFA39
S21401551004EE90AA94ED086A23EE847AF8EEE46A23
S21401552067EE067A53EEA67AD7ED085A0BF1040B0E
S21401553043EEA57A95ED081A9BED000A03910499AE
S21401554041EE007A0431D1ED000AD6ED081A40EE9C
S214015550E17A0491BDEEE72A0821C5ED087A0691A5
S214015560079D0199C4ED086A12EE10CA082420317D
S214015570203020322033AC4287ED086A86ED081AC7
S2140155800191A8F800C000F08D80DDF80CA0B8F8F5
S2140155900070049DDAED012A99ED015A3CB204EE41
S2140155A0104A90ED003A62EE853AB8EEC40A63EE10
S2140155B0830A52EE800A91ED006A42EE860AD2ED27
S2140155C0004A9BED017A44EE870AD3ED006AD5EDD9
S2140155D0017A13EE106A47EEE60A054610EE107AD7
S2140155E08C4645F8207B4CF8206B1F4614EE906ADB
S2140155F0FDEEE05A47F8206B1446089715EE906AC0
S21401560010EE907A44F8207BA8F80060B8F8007095
S2140156109AED021AD9ED021A3EB202EE906A90EDA8
S214015620082A21EE215AB8EEE23A65EE023A51EE28
S214015630033A91ED084A41EE043A92ED080ADBED91
S214015640020A049E069F40EE203A93ED086AD6EDC4
S214015650024A44EEC63A0837BDEEE37A069717EEDD
S214015660107A81ED082A80ED083A83ED080AC2ED2A
S214015670083ACDED035A05F12000A8F8007004F1B0
S2140156802002089B069C079D08362033AC420AF18F
S214015690080A09F108090BF1080B04960CF1200120
S2140156A07FF475AF0598461C082E059608F102088A
S2140156B07FF4AAAE0AB0BDE8F00F7047DDF80CA083
S2140156C0019964E7F083FF1F6883FF1F6083FF1F54
S2140156D05083FF1F5883FF1F38B548F22003C4F2DA
S2140156E004034FF480425969284CC4F2070281250D
S2140156F041F48010586155702378012B03D902209C
S214015700234904F08FFE48F22001C4F20401214827
S2140157104A6922F480254D61FFF720FD05F058F90E
S214015720FEF7BCFBFFF76EFC0120FFF711FDFDF74E
S2140157308FFA00F069F8FDF7EBFDFCF701FEFEF7C6
S214015740C1FC2478022C1CD800F02AF8A8B9124D06
S214015750FCF7AAFE044600F091F80443FEF7D8FED3
S2140157600443FEF77FF80443FFF7C6FC044300D169
S21401577030BFE8690EF084FFEAE70020FFF7E8FC97
S214015780E5E70320054904F04DFEDDE74001FF1F74
S2140157909061030084610300CC8CFF1FA8610300A5
S2140157A048F21443C1F6FF731878704748F2154360
S2140157B0C1F6FF73187070470F4B187810B500B913
S2140157C010BD0E4805F090F8044640B10C4B0D484C
S2140157D0022200211A70BDE8104005F06DB8084A93
S2140157E008480121117005F067F806482146BDE812
S2140157F0104005F091B800BF1484FF1F247C0300FD
S2140158001584FF1FB47B0300F8B500200DF0DEF908
S214015810154805F069F8044650B11449144B0020A8
S2140158200870187010480121BDE8F84005F044B82A
S2140158300E4B0F4E0F4802251D70357005F054F8BB
S214015840074628B10C483570214605F035F8E9E7DA
S214015850012211460848327005F02EF806483946EE
S21401586005F05AF8DEE700BFF87B03001484FF1F3B
S2140158701584FF1F247C0300B47B0300F8B5284D74
S214015880284C28782278904244D001280ED002284D
S21401589002D020700120F8BDCAB1012A3CD02248AE
S2140158A0FFF75CFC287820700120F8BDFEF7F4FDB8
S2140158B0FDF7FCFC00211D4805F02EF81C48FFF7FB
S2140158C04DFC0DF001FC287820700120F8BDFEF794
S2140158D017FE10EE100AFBF7F7FC02460B461548BA
S2140158E01549164F13F08CFF86B278681149324677
S2140158F00DF066FA0828F8D0C82000F02FF90F4BF3
S214015900002158680DF0F6FAFEF7C6FDFCF718FD03
S2140159102278C2E70020F8BDFCF712FDBFE700BF02
S2140159201584FF1F1484FF1F0801FF1FF07B03006F
S2140159301401FF1FF483FF1FCC610300CC8CFF1FF3
S21401594068464FF4304220F00701C4F20B028D4640
S21401595001B448F216431069C1F6FF7381B219808B
S21401596001BC8546704700BF054B1868016829B120
S21401597000F580500268002A18BF0020704700BF5B
S214015980E47A0300F8B52C4B1C6804F580510746F1
S2140159900A68EAB9294D2878022826460C461CD8FA
S2140159A030460121FEF7C6FA08BB2B78022B28D811
S2140159B0304639461022FEF78DFA00282CD1297878
S2140159C002292ED820460121FEF7B4FAA0B9F8BD67
S2140159D01A4D287802280E46E2D90320184904F009
S2140159E021FD30460121FEF7A5FA0028DDD0144935
S2140159F004F038FD0120F8BD124904F033FD012002
S214015A00F8BD0320104904F00DFD3046394610223A
S214015A10FEF760FA0028D2D00B4904F023FD0120DE
S214015A20F8BD0320074904F0FDFC20460121FEF7DE
S214015A3081FA0028CBD0DFE7E47A03004001FF1F9C
S214015A40E461030024620300FC610300684600224F
S214015A5020F00701C4F204028D4601B5106849F230
S214015A60F843C1F6FF7340F0800111601A68501CBC
S214015A70186005F005F9FFF753FBFCF7FBFCFEF792
S214015A8087F8BDE801408546704700BF47F6EC231E
S214015A90C0F2030318680830704700BFF0B447F639
S214015AA0EC23C0F2030348F218461D6855F8080FA8
S214015AB0C1F6FF766968AA68EB6834460FC448F2F7
S214015AC0384728696969AA69EB69C1F6FF770FC487
S214015AD0012038603046F0BC704700BF70B5194DE4
S214015AE0286882B070B1184B1C68226820460121D4
S214015AF00092FEF71FFA50B1144A11780120E1B95D
S214015B0002B070BD124904F08DFC0120F8E704F1E3
S214015B10080010492022FEF7DDF906460028EBD1E1
S214015B20009802A9431C41F8083D20466946082210
S214015B30FEF7D0F92E603046E2E7074904F072FC22
S214015B400120DDE73884FF1FEC7A03004001FF1FC8
S214015B50506203001884FF1FA8620300F8B5094DC0
S214015B600746A8680EF0A0FCC7190446BEB2A8688E
S214015B700EF09AFC844201D2B842F8D3B042F6D372
S214015B80F8BD00BFCC8CFF1F48F6CC43C1F6FF73AF
S214015B9010B5044698680EF087FC206010BD00BF63
S214015BA090ED007AD0ED017AB4EEC70AF1EE10FA64
S214015BB08CBF00230123B4EEE70AD0ED020A2DE9DB
S214015BC0F041F1EE10FA03F1010598BF2B46B4EE51
S214015BD0E00A90ED031AF1EE10FA03F1010798BFFF
S214015BE03B46B4EEC10AD0ED041AF1EE10FA03F109
S214015BF0010598BF2B46B4EEE10A90ED052AF1EEB9
S214015C0010FA03F1010798BF3B46B4EEC20AD0ED85
S214015C10062AF1EE10FA03F1010598BF2B46B4EE01
S214015C20E20A90ED073AF1EE10FA03F1010798BF88
S214015C303B46B4EEC03A5D1C2DED028BF1EE10FA38
S214015C40A8BF2B46012B88B004460D46904640F36C
S214015C508A80082101F0C4FA94ED004AD4ED014A85
S214015C6094ED025AD4ED035A94ED046AD4ED056A14
S214015C70D4ED063A94ED077AC4EE007AB8F1010F36
S214015C80C4EE800A85EE001AC5EE801A86EE002A5A
S214015C90C6EE802A83EE803A87EE000ACDED007AC2
S214015CA0CDED010A8DED021ACDED031A8DED042A14
S214015CB0CDED052A8DED063A8DED070A53DD20352B
S214015CC028460822694601F0C3FA9FED288AB5EEF8
S214015CD0400AF1EE10FA4FF000074FF00204C8BF79
S214015CE00127C8BFB0EE408A2035444508F00100C0
S214015CF033D080B128460822694601F0A9FAB4EEED
S214015D00C80AF1EE10FAC4BFB0EE408A2746013445
S214015D102035444521D028460822694601F098FAE4
S214015D2005F12006B4EEC80A082230466946651C0D
S214015D30F1EE10FAC4BFB0EE408A274601F088FAA9
S214015D40B4EEC80AF1EE10FA02DDB0EE408A2F4634
S214015D506C1C444506F12005DDD1384608B0BDEC83
S214015D60028BBDE8F0810027F7E700BF00000000C6
S214015D702DE9F84300F530530646986800280F468B
S214015D802ADD06F53058002508F1080805F1E0007F
S214015D9006EB401305F1600453F8049F06EB441428
S214015DA0D3F804C09868D968C4F80490C4F808C049
S214015DB0E06021615869D3F810C09969DB69C4F8BD
S214015DC014C0A061E1612362D8F8000001350434F3
S214015DD0A842DBDC022A18D0002FB8BF7F4297B159
S214015DE00028C7F108070EDD06F5305500240835F2
S214015DF006EB441101F60440394602F05FFA2B68BF
S214015E000134A342F4DCBDE8F8830028E4DD002475
S214015E1006EB441202F6044002F040FAD8F80000FD
S214015E200134A042F4DCD7E700F53053F0B49968AA
S214015E30002921DD00F530570021083701F1E00285
S214015E4000EB421301F1600453F804CF00EB441257
S214015E505E689D68DC68C2F804C09660D56014610F
S214015E601E695D699C69DB6956619561D46113623F
S214015E703A6801318A42E1DCF0BC70472DE9F0470F
S214015E80DFF8BC832DED028B38F8137001F5305620
S214015E90652F88B099460446154696ED0C8A00F0A3
S214015EA0CE8240F2F18140F22D139F4200F0C4826F
S214015EB0B7F5987F00F0BA82DFEDDC8A2F6C002FF1
S214015EC000F0EB819FEDDA8A96ED040ADFEDD90A40
S214015ED020EE080A15F060F8D6ED057A8DED000A79
S214015EE0DFEDD40A27EE880A15F056F896ED061A65
S214015EF08DED010ADFEDCF0A21EE080A15F04CF808
S214015F00D6ED071A8DED020ADFEDCA0A21EE880AE0
S214015F1015F042F896ED082A8DED030ADFEDC50A65
S214015F2022EE080A15F038F8D6ED092A8DED040A96
S214015F30DFEDC00A22EE880A15F02EF896ED0A3A31
S214015F408DED050ADFEDBB0A23EE080A15F024F8ED
S214015F50D6ED0B3AD5F844908DED060ADFEDB50A7D
S214015F6023EE880A15F018F838F81900012800F011
S214015F706082CB289FEDB08A00F0CE81D5F88810DC
S214015F80012900F0C981B7EE007ADDED000ADFEDE8
S214015F90AB5AD4ED006A20EEA54AF4EEE06A30EE84
S214015FA0A06AF1EE10FAF4EEC46A8CBF0022012258
S214015FB0AE6EF1EE10FAF4EEC66A8CBF002701272A
S214015FC0F1EE10FA8CBF4FF000084FF00108002EDA
S214015FD000F0A08167EE204AF4EEE46AF1EE10FAD2
S214015FE08CBF4FF0000A4FF0010ADDED017A9FEDFC
S214015FF0931A94ED015A67EE811AB4EEE75A37EE1A
S214016000A72AF1EE10FAB4EEE15A98BF0132EB6E10
S214016010F1EE10FAB4EEC25A98BF0137F1EE10FA5B
S21401602098BF08F1010843B167EE272AB4EEE25A99
S214016030F1EE10FA98BF0AF1010ADDED023ADFED42
S2140160407F0A94ED023A63EEA06AB4EEE33A73EE89
S214016050A35AF1EE10FAB4EEE63A98BF0132286F71
S214016060F1EE10FAB4EEE53A98BF0137F1EE10FA08
S21401607098BF08F1010840B127EE234AB4EEC43AAE
S214016080F1EE10FA98BF0AF1010A9DED035A9FED51
S2140160906B6AD4ED034A65EE067AF4EEC54A35EE30
S2140160A0051AF1EE10FAF4EEE74A98BF0132696F6D
S2140160B0F1EE10FAF4EEC14A98BF0137F1EE10FA8C
S2140160C098BF08F1010841B167EE051AF4EEE14AFE
S2140160D0F1EE10FA98BF0AF1010ADDED042A9FEDF0
S2140160E0573A94ED042A62EE833AB4EEE22A72EE4F
S2140160F0A20AF1EE10FAB4EEE32A98BF0132AE6FAF
S214016100F1EE10FAB4EEE02A98BF0137F1EE10FA7C
S21401611098BF08F1010846B167EE226AB4EEE62A96
S214016120F1EE10FA98BF0AF1010A9DED054ADFED7E
S214016130434AD4ED055A24EE245AF4EEC45A34EEFA
S214016140046AF1EE10FAF4EEC55A98BF0132EB6F0D
S214016150F1EE10FAF4EEC65A98BF0137F1EE10FAD6
S21401616098BF08F1010843B167EE047AF4EEE75AE6
S214016170F1EE10FA98BF0AF1010ADDED061A9FED5D
S2140161802F2A94ED061A61EE822AB4EEE11A31EE58
S214016190A13AF1EE10FAB4EEE21A98BF0132D5F840
S2140161A08000F1EE10FAB4EEC31A98BF0137F1EE93
S2140161B010FA98BF08F1010840B167EE213AB4EE33
S2140161C0E31AF1EE10FA98BF0AF1010ADFED1B6A35
S2140161D0D4ED070A60EE265AB4EEE00A30EE004A25
S2140161E0F1EE10FAF4EEE50AA8BF0132D5F88410F4
S2140161F0F1EE10FAF4EEC40A98BF0137F1EE10FA88
S21401620098BF08F1010841B127EE000AF4EEC00A72
S214016210F1EE10FA98BF0AF1010A082A50D10026B9
S2140162202E64B14605F1480618E000BF9A99993EDA
S2140162306666A63F0000C84200007A433333B33F88
S214016240D46203003333333F6666263F0000000006
S2140162500080D4439A99193F6666663F2068616854
S214016260A268E368A8647160B260F360206961693E
S214016270A269E36930617161B261F361484608B0B1
S214016280BDEC028BBDE8F087012F4BD047D22F6CB7
S214016290F7EE008A002F7FF415AE0821204600F0A5
S2140162A09FFF28EE288A6E6CB4EEC80AF1EE10FA4B
S2140162B098BF4FF000094E453BD005F14806CDE7A3
S2140162C00821204600F08CFF05F1480608213046DB
S2140162D0F0EE408A00F084FF30EE087AF4EEC78ACA
S2140162E0F1EE10FA06DD40F2E732914502D00021C8
S2140162F02964B3E7BAF1000F17D1032FAEDDB8F169
S214016300060FABDD40F2E733994504BFC5F840A060
S214016310D146A3E7B24668E6B7EE087A35E6642FBB
S2140163207FF4CAAD5FED398AC8E50020286481464E
S21401633094E7B9F1000FC0D001222A64204605F186
S21401634068011FED3F0A01F0E5FF0328C5F8880044
S21401635064DCB2E7D4ED004AF5EEC04AF1EE10FA7D
S2140163605FDD0021EA6E4AB194ED015AF4EEC54AAA
S214016370F1EE10FA44BFF0EE454A01212B6F4BB106
S21401638094ED026AF4EEC64AF1EE10FA44BFF0EE5E
S214016390464A02216A6F4AB1D4ED037AF4EEE74A1F
S2140163A0F1EE10FA44BFF0EE674A0321AB6F4BB132
S2140163B094ED041AF4EEC14AF1EE10FA44BFF0EE81
S2140163C0414A0421EA6F4AB1D4ED051AF4EEE14AD6
S2140163D0F1EE10FA44BFF0EE614A0521D5F880309F
S2140163E04BB194ED062AF4EEC24AF1EE10FA44BF20
S2140163F0F0EE424A0621D5F884201AB3D4ED072AD6
S214016400F4EEE24AF1EE10FA1CD507211A310138F2
S214016410032845F82170C5F8880015D0AB6E002B0F
S21401642098D14FF0FF315FED774A9BE7F6EE008A91
S21401643044E51FED798AA1E55FED7A8A3EE55FEDD9
S2140164407A8A3BE54A1CE1D1B14636E72DE9F04FA1
S21401645002F530572DED028BDFEDE67A97ED048AD3
S2140164609FEDE50A28EE278A89B0B4EEC08AF1EEE0
S21401647010FA9046054600911C4640F3D38138EE4B
S214016480400ADFEDDE0A14F0A0FDD5ED000ADFEDCF
S214016490DA8AF4EEE80AF1EE10FA09DD9FEDD77A12
S2140164A038EE471AF4EEC10AF1EE10FA00F1CC8389
S2140164B0B5EEC00AF1EE10FA07DD78EE401AF4EEFA
S2140164C0E01AF1EE10FA40F2348297ED056A9FED7C
S2140164D0C90ADFEDC96A26EE008AB4EEE68AF1EE55
S2140164E010FA40F39C8138EE660ADFEDC40A14F018
S2140164F06CFDD5ED017ADFEDC08AF4EEE87AF1EEB7
S21401650010FA09DDDFEDBD0A38EE607AF4EEC77ADF
S214016510F1EE10FA00F1CB83B5EEC00AF1EE10FAF7
S21401652007DD38EE401AF4EEC17AF1EE10FA80F289
S214016530ED81D7ED065ADFEDAF6A9FEDAF6A25EE26
S214016540A68AB4EEC68AF1EE10FA40F3658138EEFB
S214016550460ADFEDAA0A14F038FDD5ED027ADFED22
S214016560A68AF4EEE87AF1EE10FA09DDDFEDA30A69
S21401657038EE607AF4EEC77AF1EE10FA00F1758320
S214016580B5EEC00AF1EE10FA07DD38EE401AF4EE69
S214016590C17AF1EE10FA80F2A68197ED075A9FEDC7
S2140165A0956ADFED955A25EE068AB4EEE58AF1EE98
S2140165B010FA40F32E8138EE650ADFED900A14F0EA
S2140165C004FDD5ED036ADFED8C8AF4EEE86AF1EEA0
S2140165D010FA09DDDFED897A78EE670AF4EEE06AF3
S2140165E0F1EE10FA00F15283B5EEC00AF1EE10FAA0
S2140165F007DD38EE407AF4EEC76AF1EE10FA80F263
S2140166005F81D7ED084ADFED7B5A9FED7B5A24EE7A
S214016610A58AB4EEC58AF1EE10FA40F3F78038EE9B
S214016620450ADFED760A14F0D0FC95ED046ADFED3D
S214016630728AB4EEE86AF1EE10FA09DDDFED6F6AF0
S21401664078EE667AB4EEE76AF1EE10FA00F1DA82D5
S214016650B5EEC00AF1EE10FA07DD78EE400AB4EEA8
S214016660E06AF1EE10FA80F2188197ED094A9FED83
S214016670615ADFED614A24EE058AB4EEE48AF1EE52
